{
  "_format": "hh-sol-artifact-1",
  "contractName": "Layer2",
  "sourceName": "contracts/Layer2.sol",
  "abi": [
    {
      "inputs": [
        {
          "internalType": "address",
          "name": "",
          "type": "address"
        }
      ],
      "name": "balances",
      "outputs": [
        {
          "internalType": "uint256",
          "name": "",
          "type": "uint256"
        }
      ],
      "stateMutability": "view",
      "type": "function"
    },
    {
      "inputs": [],
      "name": "deposit",
      "outputs": [],
      "stateMutability": "payable",
      "type": "function"
    },
    {
      "inputs": [
        {
          "internalType": "address",
          "name": "user",
          "type": "address"
        }
      ],
      "name": "getBalance",
      "outputs": [
        {
          "internalType": "uint256",
          "name": "",
          "type": "uint256"
        }
      ],
      "stateMutability": "view",
      "type": "function"
    },
    {
      "inputs": [
        {
          "internalType": "uint256",
          "name": "amount",
          "type": "uint256"
        }
      ],
      "name": "withdraw",
      "outputs": [],
      "stateMutability": "nonpayable",
      "type": "function"
    }
  ],
  "bytecode": "0x608060405234801561001057600080fd5b5061052f806100206000396000f3fe60806040526004361061003f5760003560e01c806327e235e3146100445780632e1a7d4d14610081578063d0e30db0146100aa578063f8b2cb4f146100b4575b600080fd5b34801561005057600080fd5b5061006b6004803603810190610066919061032b565b6100f1565b6040516100789190610371565b60405180910390f35b34801561008d57600080fd5b506100a860048036038101906100a391906103b8565b610109565b005b6100b2610229565b005b3480156100c057600080fd5b506100db60048036038101906100d6919061032b565b610280565b6040516100e89190610371565b60405180910390f35b60006020528060005260406000206000915090505481565b806000803373ffffffffffffffffffffffffffffffffffffffff1673ffffffffffffffffffffffffffffffffffffffff16815260200190815260200160002054101561018a576040517f08c379a000000000000000000000000000000000000000000000000000000000815260040161018190610442565b60405180910390fd5b806000803373ffffffffffffffffffffffffffffffffffffffff1673ffffffffffffffffffffffffffffffffffffffff16815260200190815260200160002060008282546101d89190610491565b925050819055503373ffffffffffffffffffffffffffffffffffffffff166108fc829081150290604051600060405180830381858888f19350505050158015610225573d6000803e3d6000fd5b5050565b346000803373ffffffffffffffffffffffffffffffffffffffff1673ffffffffffffffffffffffffffffffffffffffff168152602001908152602001600020600082825461027791906104c5565b92505081905550565b60008060008373ffffffffffffffffffffffffffffffffffffffff1673ffffffffffffffffffffffffffffffffffffffff168152602001908152602001600020549050919050565b600080fd5b600073ffffffffffffffffffffffffffffffffffffffff82169050919050565b60006102f8826102cd565b9050919050565b610308816102ed565b811461031357600080fd5b50565b600081359050610325816102ff565b92915050565b600060208284031215610341576103406102c8565b5b600061034f84828501610316565b91505092915050565b6000819050919050565b61036b81610358565b82525050565b60006020820190506103866000830184610362565b92915050565b61039581610358565b81146103a057600080fd5b50565b6000813590506103b28161038c565b92915050565b6000602082840312156103ce576103cd6102c8565b5b60006103dc848285016103a3565b91505092915050565b600082825260208201905092915050565b7f496e73756666696369656e742062616c616e6365000000000000000000000000600082015250565b600061042c6014836103e5565b9150610437826103f6565b602082019050919050565b6000602082019050818103600083015261045b8161041f565b9050919050565b7f4e487b7100000000000000000000000000000000000000000000000000000000600052601160045260246000fd5b600061049c82610358565b91506104a783610358565b92508282039050818111156104bf576104be610462565b5b92915050565b60006104d082610358565b91506104db83610358565b92508282019050808211156104f3576104f2610462565b5b9291505056fea2646970667358221220d6275771f5d5ccd4a67a7d89f89c342c47a03f016b91ce84fe237a5fb4b36ce164736f6c63430008140033",
  "linkReferences": {},
  "deployedLinkReferences": {}
}